:100000000C94F4000C94CC050C94A1050C9476058A
:100010000C944B050C9420050C94F5040C94CA0424
:100020000C949F040C9425010C9425010C9425013B
:100030000C9425010C9457060C9425010C94250171
:100040000C9425010C9425010C9425010C94250198
:100050000C9425010C9425010C9425010C94550455
:100060000C9425010C9421060C94F7050C942501A1
:100070000C9425010C9425010C9425010C94250168
:100080000C9425010C9425010C9425010C94250158
:100090000C9425010C9425010C9425010C94250148
:1000A0000C9425010C9425010C9425010C94250138
:1000B0000C9425010C9425010C9425010C94250128
:1000C0000C9425010C9425010C9425010C94250118
:1000D0000C9425010C9425010C9425010C94250108
:1000E0000C9425010C9474010C94A2010C94AB06A1
:1000F0000C94EB020C94D3010C94C5010C9458029F
:100100000C9475010C94B1010C940B0200002200B8
:10011000250028002B002E003100340002010000D1
:10012000050108010B0100002100240027002A001E
:100130002D003000330001010000040107010A0115
:1001400001021020200808102040102040800201E9
:1001500002010804020101020408102040808040CE
:1001600020100804020180040201804020100804CD
:10017000020108040201010204081020408001026B
:1001800004081020408000002000230026002900E1
:100190002C002F00320000010000030106010901BC
:1001A00005050505070508080808020202020A0AF3
:1001B0000808040404040101010101010101030311
:1001C000030303030303040707070C0C0C0C0C0CBC
:1001D0000C0C0202020206060606060606060B0BB9
:1001E0000B0B0B0B0B0BAB0611241FBECFEFD1E299
:1001F000DEBFCDBF00E00CBF12E0A0E0B2E0E2E065
:10020000F9E100E00BBF02C007900D92AE39B107D3
:10021000D9F723E0AEE9B2E001C01D92A038B207E1
:10022000E1F710E0C4EFD0E000E006C0219701093B
:10023000802FFE010E943B0AC33FD10780E00807E0
:10024000A9F70E94A0070C947F0C0C940000CF9398
:10025000DF9390E0FC01E05CFE4F249180569E4FBE
:10026000FC0184918823C1F090E0880F991FFC0164
:10027000EA5DFE4FC591D491FC01E45FFE4FA5916C
:10028000B4919FB7F8943881822F80958323888317
:10029000EC91E22BEC939FBFDF91CF9108953FB794
:1002A000F8948091AB029091AC02A091AD02B09114
:1002B000AE0226B5A89B05C02F3F19F00196A11DDF
:1002C000B11D3FBFBA2FA92F982F8827BC01CD01A0
:1002D000620F711D811D911D42E0660F771F881FFF
:1002E000991F4A95D1F708950895AF92BF92CF9282
:1002F000DF92EF92FF920F931F93CF93DF936C01E6
:100300007B018B01040F151FEB015E01AE18BF08C6
:10031000C017D10759F06991D601ED91FC91019078
:10032000F081E02DC6011995892B79F7C501DF9180
:10033000CF911F910F91FF90EF90DF90CF90BF90E2
:10034000AF900895FC01538D448D252F30E0842F0C
:1003500090E0821B930B541710F0CF9608950197ED
:100360000895FC01918D828D981761F0A28DAE0FDA
:10037000BF2FB11D5D968C91928D9F5F9F73928F61
:1003800090E008958FEF9FEF0895FC01918D828D8D
:10039000981731F0828DE80FF11D858D90E008955A
:1003A0008FEF9FEF0895FC01918D228D892F90E0B2
:1003B000805C9F4F821B91098F73992708958BEB67
:1003C00092E00E94D30121E0892B09F420E0822FE2
:1003D0000895FC01A48DA80FB92FB11DA35ABF4FDA
:1003E0002C91848D90E001968F739927848FA68934
:1003F000B7892C93A089B1898C91837080648C9388
:10040000938D848D981306C00288F389E02D808136
:100410008F7D80830895EF92FF920F931F93CF9368
:10042000DF93EC0181E0888F9B8D8C8D98131AC02F
:10043000E889F989808185FF15C09FB7F894EE8916
:10044000FF896083E889F989808183708064808373
:100450009FBF81E090E0DF91CF911F910F91FF90BE
:10046000EF900895F62E0B8D10E00F5F1F4F0F7366
:100470001127E02E8C8D8E110CC00FB607FCFACF21
:10048000E889F989808185FFF5CFCE010E94E901D5
:10049000F1CFEB8DEC0FFD2FF11DE35AFF4FF082F2
:1004A0009FB7F8940B8FEA89FB8980818062CFCF58
:1004B000CF93DF93EC01888D8823B9F0AA89BB899B
:1004C000E889F9898C9185FD03C0808186FD0DC086
:1004D0000FB607FCF7CF8C9185FFF2CF808185FFA7
:1004E000EDCFCE010E94E901E9CFDF91CF910895D0
:1004F00080E090E0892B29F00E94DF0181110E94A9
:10050000000080E090E0892B49F080E090E0892BAA
:1005100029F00E94000081110E94000080E090E01C
:10052000892B49F080E090E0892B29F00E9400009F
:1005300081110E94000080E090E0892B49F080E06A
:1005400090E0892B29F00E94000081110C9400009A
:100550000895DC01ED91FD918081ED91FD919081F7
:10056000ED91FD916C9163708E2309F064609F237F
:1005700009F06860E6ECF2E0E60FF11D659565951F
:100580006D936D917D918D919D91099423C01AC0B9
:1005900012C016C010C01EC009C014C013C006C0CF
:1005A00019C009C00DC007C00DC014C06250704012
:1005B000804090400BC0615070408040904006C029
:1005C0006E5F01C06F5F7F4F8F4F9F4F9E938E93E3
:1005D0007E936E9308958091AF029091B0020C9437
:1005E000A9028091B1029091B2020C94A90280916B
:1005F000B3029091B4020C94A9028091B50290913B
:10060000B6020C94A9028091B7029091B8020C94A2
:10061000A9028091B9029091BA020C94A90280912A
:100620006303823078F4F89488E593E00E94A9028D
:1006300060915F0370916003809161039091620308
:1006400078940895F894F4CFFC0101900020E9F724
:100650003197AF01481B590BBC018BEB92E00C9416
:1006600075018F929F92AF92BF920F931F93CF937A
:10067000DF93CDB7DEB7A1970FB6F894DEBF0FBEFC
:10068000CDBF19A2423008F44AE08E010F5D1F4F22
:10069000842E912CB12CA12CA50194010E94190A41
:1006A000E62FB901CA01EA30F4F4E05DD801EE9317
:1006B0008D01232B242B252B79F790E080E01097D8
:1006C00019F0CD010E942403A1960FB6F894DEBF65
:1006D0000FBECDBFDF91CF911F910F91BF90AF9013
:1006E0009F908F900895E95CE1CF4F925F926F9257
:1006F0007F928F929F92AF92BF92CF92DF92EF92B2
:10070000FF921F93CF93DF936B017C01D42FAC0139
:100710009B010E947A0C8823D9F082E292E00E9429
:100720002403EC018EE292E00E9424038C0F9D1FB3
:10073000DF91CF911F91FF90EF90DF90CF90BF900E
:10074000AF909F908F907F906F905F904F900895A3
:1007500046015701E894B7F82FEF3FEF4FE75FE707
:10076000C501B4010E947A0C81110DC02FEF3FEF3B
:100770004FE75FE7C501B4010E94B00A18161CF4E8
:1007800086E292E0CCCF2FEF3FEF4FE75FE4C70167
:10079000B6010E94080C18161CF48AE292E0BFCF42
:1007A0002FEF3FEF4FE75FECC701B6010E94B00AA1
:1007B00087FDF3CF20E030E0A901C701B6010E9418
:1007C000B00AB12CA12C87FF0AC06DE28BEB92E03E
:1007D0000E940B025C01F7FAF094F7F8F0941D2FD9
:1007E00060E070E080E09FE3C0E020E030E040E2C5
:1007F00051E40E94B50ACF5FCD17B8F3A701960167
:100800000E94440A6B017C010E94270B2B013C01D2
:100810000E94560B9B01AC01C701B6010E94430A1E
:100820006B017C014AE0C301B2010E943103EC017B
:100830006EE28BEB92E00E940B02C80FD91FCA0D2B
:10084000DB1D115008F46ECF20E030E040E251E4AF
:10085000C701B6010E940D0C4B015C010E94270BE1
:100860006B01F12CE12C4AE0C701B6010E94310373
:10087000C80FD91FC701B6010E94560B9B01AC01DE
:10088000C501B4010E94430A6B017C01DACFCF930A
:10089000DF930E942403EC018EE292E00E94240385
:1008A0008C0F9D1FDF91CF9108951F920F920FB66D
:1008B0000F9211242F933F938F939F93AF93BF93E6
:1008C0008091A7029091A802A091A902B091AA02DA
:1008D0003091A60223E0230F2D3758F50196A11D74
:1008E000B11D2093A6028093A7029093A802A09323
:1008F000A902B093AA028091AB029091AC02A091A0
:10090000AD02B091AE020196A11DB11D8093AB0264
:100910009093AC02A093AD02B093AE02BF91AF91A1
:100920009F918F913F912F910F900FBE0F901F902D
:10093000189526E8230F0296A11DB11DD2CF1F9254
:100940000F920FB60F9211240BB60F922F933F9375
:100950004F935F936F937F938F939F93AF93BF93C7
:10096000EF93FF93E0910E02F0910F021995FF9122
:10097000EF91BF91AF919F918F917F916F915F9117
:100980004F913F912F910F900BBE0F900FBE0F9084
:100990001F9018951F920F920FB60F9211240BB64D
:1009A0000F922F933F934F935F936F937F938F9308
:1009B0009F93AF93BF93EF93FF93E0910C02F0915D
:1009C0000D021995FF91EF91BF91AF919F918F917A
:1009D0007F916F915F914F913F912F910F900BBE3F
:1009E0000F900FBE0F901F9018951F920F920FB689
:1009F0000F9211240BB60F922F933F934F935F9357
:100A00006F937F938F939F93AF93BF93EF93FF93D6
:100A1000E0910202F09103021995FF91EF91BF91CD
:100A2000AF919F918F917F916F915F914F913F9186
:100A30002F910F900BBE0F900FBE0F901F90189527
:100A40001F920F920FB60F9211240BB60F922F9395
:100A50003F934F935F936F937F938F939F93AF9346
:100A6000BF93EF93FF93E0910002F091010219957B
:100A7000FF91EF91BF91AF919F918F917F916F9176
:100A80005F914F913F912F910F900BBE0F900FBE32
:100A90000F901F9018951F920F920FB60F9211246E
:100AA0000BB60F922F933F934F935F936F937F9368
:100AB0008F939F93AF93BF93EF93FF93E0910A02BD
:100AC000F0910B021995FF91EF91BF91AF919F911A
:100AD0008F917F916F915F914F913F912F910F90E7
:100AE0000BBE0F900FBE0F901F9018951F920F9284
:100AF0000FB60F9211240BB60F922F933F934F9383
:100B00005F936F937F938F939F93AF93BF93EF9375
:100B1000FF93E0910802F09109021995FF91EF917E
:100B2000BF91AF919F918F917F916F915F914F9105
:100B30003F912F910F900BBE0F900FBE0F901F9003
:100B400018951F920F920FB60F9211240BB60F92A9
:100B50002F933F934F935F936F937F938F939F93C5
:100B6000AF93BF93EF93FF93E0910602F0910702DA
:100B70001995FF91EF91BF91AF919F918F917F91C7
:100B80006F915F914F913F912F910F900BBE0F90FE
:100B90000FBE0F901F9018951F920F920FB60F92D5
:100BA00011240BB60F922F933F934F935F936F9344
:100BB0007F938F939F93AF93BF93EF93FF93E091B6
:100BC0000402F09105021995FF91EF91BF91AF9149
:100BD0009F918F917F916F915F914F913F912F9155
:100BE0000F900BBE0F900FBE0F901F9018951F9285
:100BF0000F920FB60F9211240BB60F922F933F93C3
:100C00004F935F936F937F938F939F93AF93BF9314
:100C1000EF93FF938BEB92E00E94E901FF91EF913C
:100C2000BF91AF919F918F917F916F915F914F9104
:100C30003F912F910F900BBE0F900FBE0F901F9002
:100C400018951F920F920FB60F9211240BB60F92A8
:100C50002F938F939F93EF93FF93E091CB02F091AB
:100C6000CC028081E091D102F091D20282FD1DC0C0
:100C700090818091D4028F5F8F732091D50282176B
:100C800041F0E091D402F0E0E554FD4F958F809360
:100C9000D402FF91EF919F918F912F910F900BBEF6
:100CA0000F900FBE0F901F9018958081F2CF1F926A
:100CB0000F920FB60F9211240BB60F922F933F9302
:100CC0004F935F936F937F938F939F93AF93BF9354
:100CD000CF93DF93EF93FF93C8E5D3E0888D998D91
:100CE000AA8DBB8D8C8F9D8FAE8FBF8F8C899D8978
:100CF000AE89BF89888F998FAA8FBB8F8889998980
:100D0000AA89BB898C8B9D8BAE8BBF8B8C859D8577
:100D1000AE85BF85888B998BAA8BBB8B0E940F03F6
:100D20000E94580B6C877D878E879F87FF91EF917C
:100D3000DF91CF91BF91AF919F918F917F916F91F3
:100D40005F914F913F912F910F900BBE0F900FBE6F
:100D50000F901F901895CF93DF931092BE021092C0
:100D6000BD0288EE93E0A0E0B0E08093BF029093D4
:100D7000C002A093C102B093C20284E192E09093BA
:100D8000BC028093BB0285EC90E09093C8028093F4
:100D9000C70284EC90E09093CA028093C90280EC71
:100DA00090E09093CC028093CB0281EC90E0909302
:100DB000CE028093CD0282EC90E09093D00280939B
:100DC000CF0286EC90E09093D2028093D1021092F1
:100DD000D4021092D5021092D6021092D70282E06D
:100DE0000E94270184E00E942701E2EAF1E0E491F9
:100DF000F0E0EE0FFF1FEA57FE4FA591B491B093BC
:100E00005903A0935803E2E4F1E0449140935C035A
:100E1000E4EAF1E0E491F0E0EE0FFF1FEA57FE4F45
:100E2000C591D491D0935B03C0935A03E4E4F1E0FD
:100E3000E491E0935D0310925F03109260031092BF
:100E40006103109262032BE33FE1C9010197F1F7BF
:100E50009C91842F892391E009F490E08881E82314
:100E600009F0926090935E0388E593E09093B0025E
:100E70008093AF028BEE92E0909301028093000288
:100E800080916A008C7F816080936A00EC9A81E097
:100E9000809363038FE692E1A3E0B9E38093780344
:100EA00090937903A0937A03B0937B0380E090E062
:100EB000ACE0B4E480937C0390937D03A0937E0325
:100EC000B0937F0381E392E00E944704609178032E
:100ED0007091790380917A0390917B0342E050E016
:100EE0000E9475038FB7F894109264031092650303
:100EF00010926603109267031092680310926903C0
:100F000010926A0310926B0310926C0310926D039F
:100F100010926E0310926F0310927003109271037F
:100F2000109272031092730310927403109275035F
:100F300010927603109277038FBFDF91CF910895BF
:100F4000CF93DF9300D000D000D0CDB7DEB7789438
:100F500084B5826084BD84B5816084BD85B58260BE
:100F600085BD85B5816085BD80916E00816080936F
:100F70006E001092810080918100826080938100D8
:100F800080918100816080938100809180008160E8
:100F9000809380008091B10084608093B100809143
:100FA000B00081608093B000809191008260809356
:100FB00091008091910081608093910080919000D8
:100FC0008160809390008091A10082608093A10055
:100FD0008091A10081608093A1008091A000816038
:100FE0008093A000809121018260809321018091F3
:100FF0002101816080932101809120018160809393
:10100000200180917A00846080937A0080917A0038
:10101000826080937A0080917A00816080937A0068
:1010200080917A00806880937A001092C100E091EC
:10103000CB02F091CC0282E08083E091C702F09174
:10104000C8021082E091C902F091CA028FEC80833D
:101050001092D302E091CF02F091D00286E080831B
:10106000E091CD02F091CE02808180618083E09199
:10107000CD02F091CE02808188608083E091CD0224
:10108000F091CE02808180688083E091CD02F09162
:10109000CE0280818F7D80832FB7F8948091A70244
:1010A0009091A802A091A902B091AA022FBF8093AB
:1010B000A2029093A302A093A402B093A5020E945F
:1010C0004F0160939E0270939F028093A0029093C1
:1010D000A10287E492E00E9447042FB7F894809120
:1010E000A7029091A802A091A902B091AA022FBFD5
:1010F0004091A2025091A3026091A4027091A502B6
:10110000841B950BA60BB70B893E9340A105B10537
:1011100008F422C188E692E00E9447043FB739876D
:10112000F8946091640370916503809166039091D7
:101130006703409068035090690360906A03709061
:101140006B03C0906C03D0906D03E0906E03F09041
:101150006F0320917003309171034091720350919D
:10116000730329833A834B835C832091740330910A
:10117000750340917603509177032D833E834F830F
:10118000588720E030E048EC51E40E940D0C4B0100
:101190005C0120E030E040E452E4C301B2010E946F
:1011A0000D0C9B01AC01C501B4010E94430A4B0127
:1011B0005C0120E030E040E152E4C701B6010E944A
:1011C0000D0C9B01AC01C501B4010E94440A6B01E6
:1011D0007C0120E030E040E851E469817A818B8134
:1011E0009C810E940D0C9B01AC01C701B6010E94BD
:1011F000430A6B017C0120E030E040E450E46D8163
:101200007E818F8198850E940D0C9B01AC01C701E6
:10121000B6010E94440A2BED3FE049EC50E40E94E5
:101220000D0C6B017C0120E030E040E451E4609162
:1012300078037091790380917A0390917B030E94E7
:101240000D0C20917C0330917D0340917E035091E1
:101250007F030E940D0C9B01AC01C701B6010E94E7
:10126000B50A6B017C018BE792E00E944704609114
:10127000640370916503809166039091670342E077
:1012800050E00E947503609168037091690380913A
:101290006A0390916B0342E050E00E9475036091F5
:1012A0006C0370916D0380916E0390916F0342E027
:1012B00050E00E94750360917003709171038091FA
:1012C00072039091730342E050E00E9475036091B5
:1012D000740370917503809176039091770342E0D7
:1012E00050E00E94750339853FBF45E050E0C701DB
:1012F000B6010E94750382E992E00E9447040E94B1
:101300000F036B017C014AE0F7FE0DC06DE28BEB31
:1013100092E00E940B0266277727CB016C197D09AA
:101320008E099F094AE00E9431038EE292E00E94FA
:1013300024032FB7F8948091A7029091A802A0915E
:10134000A902B091AA022FBF8093A2029093A30298
:10135000A093A402B093A5020E944F01C0909E02E8
:10136000D0909F02E090A002F090A1026C197D093C
:101370008E099F096E3771058105910508F456C0E5
:101380008091700390917103A0917203B0917303E7
:101390008093740390937503A0937603B0937703BF
:1013A00080916C0390916D03A0916E03B0916F03D7
:1013B0008093700390937103A0937203B0937303AF
:1013C0008091680390916903A0916A03B0916B03C7
:1013D00080936C0390936D03A0936E03B0936F039F
:1013E0008091640390916503A0916603B0916703B7
:1013F0008093680390936903A0936A03B0936B038F
:101400000E940F030E94580B60936403709365035E
:1014100080936603909367030E944F0160939E023E
:1014200070939F028093A0029093A1020E94780281
:1014300054CEA1E21A2EAA1BBB1BFD010DC0AA1F90
:10144000BB1FEE1FFF1FA217B307E407F50720F02D
:10145000A21BB30BE40BF50B661F771F881F991FA8
:101460001A9469F760957095809590959B01AC01F1
:10147000BD01CF010895EE0FFF1F881F8BBF07909E
:10148000F691E02D19945058BB27AA270E945B0AB9
:101490000C94CE0B0E94C00B38F00E94C70B20F0BA
:1014A00039F49F3F19F426F40C94BD0B0EF4E0952B
:1014B000E7FB0C94B70BE92F0E94DF0B58F3BA1728
:1014C000620773078407950720F079F4A6F50C945A
:1014D000010C0EF4E0950B2EBA2FA02D0B01B901D3
:1014E00090010C01CA01A0011124FF27591B99F09A
:1014F000593F50F4503E68F11A16F040A22F232FA6
:10150000342F4427585FF3CF469537952795A795F5
:10151000F0405395C9F77EF41F16BA0B620B730B9C
:10152000840BBAF09150A1F0FF0FBB1F661F771F0D
:10153000881FC2F70EC0BA0F621F731F841F48F4C2
:10154000879577956795B795F7959E3F08F0B0CF4B
:101550009395880F08F09927EE0F97958795089532
:101560000E94930B08F481E008950E94C90A0C942C
:10157000CE0B0E94C70B58F00E94C00B40F029F41C
:101580005F3F29F00C94B70B51110C94020C0C9492
:10159000BD0B0E94DF0B68F39923B1F3552391F340
:1015A000951B550BBB27AA2762177307840738F0D2
:1015B0009F5F5F4F220F331F441FAA1FA9F335D02F
:1015C0000E2E3AF0E0E832D091505040E695001CE3
:1015D000CAF72BD0FE2F29D0660F771F881FBB1F9D
:1015E000261737074807AB07B0E809F0BB0B802D7B
:1015F000BF01FF2793585F4F3AF09E3F510578F0A7
:101600000C94B70B0C94020C5F3FE4F3983ED4F3B8
:10161000869577956795B795F7959F5FC9F7880F7A
:10162000911D9695879597F90895E1E0660F771FCC
:10163000881FBB1F621773078407BA0720F0621B5D
:10164000730B840BBA0BEE1F88F7E09508950E9488
:10165000E70B88F09F5798F0B92F9927B751B0F052
:10166000E1F0660F771F881F991F1AF0BA95C9F726
:1016700014C0B13091F00E94010CB1E008950C94B7
:10168000010C672F782F8827B85F39F0B93FCCF36A
:10169000869577956795B395D9F73EF490958095A3
:1016A000709561957F4F8F4F9F4F0895E89409C0C3
:1016B00097FB3EF490958095709561957F4F8F4F85
:1016C0009F4F9923A9F0F92F96E9BB279395F6959B
:1016D000879577956795B795F111F8CFFAF4BB0F19
:1016E00011F460FF1BC06F5F7F4F8F4F9F4F16C07D
:1016F000882311F096E911C0772321F09EE8872F07
:10170000762F05C0662371F096E8862F70E060E0C2
:101710002AF09A95660F771F881FDAF7880F96953B
:10172000879597F90895990F0008550FAA0BE0E8DF
:10173000FEEF16161706E807F907C0F01216130693
:10174000E407F50798F0621B730B840B950B39F4D3
:101750000A2661F0232B242B252B21F408950A2639
:1017600009F4A140A6958FEF811D811D089597F979
:101770009F6780E870E060E008959FEF80EC089537
:1017800000240A9416161706180609060895002460
:101790000A9412161306140605060895092E0394DA
:1017A000000C11F4882352F0BB0F40F4BF2B11F44E
:1017B00060FF04C06F5F7F4F8F4F9F4F089557FDAD
:1017C0009058440F551F59F05F3F71F04795880FAF
:1017D00097FB991F61F09F3F79F087950895121646
:1017E00013061406551FF2CF4695F1DF08C01616F2
:1017F00017061806991FF1CF8695710561050894A3
:101800000895E894BB2766277727CB0197F90895B9
:101810000E94930B08F48FEF08950E94200C0C9403
:10182000CE0B0E94C00B38F00E94C70B20F095230E
:1018300011F00C94B70B0C94BD0B11240C94020CFA
:101840000E94DF0B70F3959FC1F3950F50E0551F79
:10185000629FF001729FBB27F00DB11D639FAA2705
:10186000F00DB11DAA1F649F6627B00DA11D661F54
:10187000829F2227B00DA11D621F739FB00DA11D75
:10188000621F839FA00D611D221F749F3327A00D2F
:10189000611D231F849F600D211D822F762F6A2FCB
:1018A00011249F5750409AF0F1F088234AF0EE0F30
:1018B000FF1FBB1F661F771F881F91505040A9F75D
:1018C0009E3F510580F00C94B70B0C94020C5F3FC7
:1018D000E4F3983ED4F3869577956795B795F79599
:1018E000E7959F5FC1F7FE2B880F911D9695879511
:1018F00097F908950E94930B880B990B0895F8941B
:02190000FFCF17
:10190200740174017401740174017401740174012D
:10191200000000000B027501A2015802D301B101BF
:10192200C5016E616E00696E66006F7666000D0A13
:101932000054696D6520706572696F6420696E6913
:101942007469616C3A200041726475696E6F204956
:101952006E697469616C697A656420737563636525
:10196200737366756C6C7900416E67756C61722079
:1019720056656C6F636974793A2000456E636F64D3
:1019820065722061727261792076616C7565733A55
:0E1992002000506F736974696F6E3A20000078
:00000001FF
